{
  "_format": "hh-sol-artifact-1",
  "contractName": "VulnerableVault",
  "sourceName": "contracts/VulnerableVault.sol",
  "abi": [
    {
      "inputs": [],
      "stateMutability": "nonpayable",
      "type": "constructor"
    },
    {
      "inputs": [
        {
          "internalType": "address",
          "name": "target",
          "type": "address"
        }
      ],
      "name": "AddressEmptyCode",
      "type": "error"
    },
    {
      "inputs": [
        {
          "internalType": "address",
          "name": "implementation",
          "type": "address"
        }
      ],
      "name": "ERC1967InvalidImplementation",
      "type": "error"
    },
    {
      "inputs": [],
      "name": "ERC1967NonPayable",
      "type": "error"
    },
    {
      "inputs": [],
      "name": "FailedCall",
      "type": "error"
    },
    {
      "inputs": [],
      "name": "InvalidInitialization",
      "type": "error"
    },
    {
      "inputs": [],
      "name": "NotInitializing",
      "type": "error"
    },
    {
      "inputs": [
        {
          "internalType": "address",
          "name": "owner",
          "type": "address"
        }
      ],
      "name": "OwnableInvalidOwner",
      "type": "error"
    },
    {
      "inputs": [
        {
          "internalType": "address",
          "name": "account",
          "type": "address"
        }
      ],
      "name": "OwnableUnauthorizedAccount",
      "type": "error"
    },
    {
      "inputs": [],
      "name": "UUPSUnauthorizedCallContext",
      "type": "error"
    },
    {
      "inputs": [
        {
          "internalType": "bytes32",
          "name": "slot",
          "type": "bytes32"
        }
      ],
      "name": "UUPSUnsupportedProxiableUUID",
      "type": "error"
    },
    {
      "anonymous": false,
      "inputs": [
        {
          "indexed": true,
          "internalType": "address",
          "name": "user",
          "type": "address"
        },
        {
          "indexed": false,
          "internalType": "uint256",
          "name": "amount",
          "type": "uint256"
        }
      ],
      "name": "Deposited",
      "type": "event"
    },
    {
      "anonymous": false,
      "inputs": [
        {
          "indexed": false,
          "internalType": "uint64",
          "name": "version",
          "type": "uint64"
        }
      ],
      "name": "Initialized",
      "type": "event"
    },
    {
      "anonymous": false,
      "inputs": [
        {
          "indexed": true,
          "internalType": "address",
          "name": "oldOwner",
          "type": "address"
        },
        {
          "indexed": true,
          "internalType": "address",
          "name": "newOwner",
          "type": "address"
        }
      ],
      "name": "OwnerChanged",
      "type": "event"
    },
    {
      "anonymous": false,
      "inputs": [
        {
          "indexed": true,
          "internalType": "address",
          "name": "previousOwner",
          "type": "address"
        },
        {
          "indexed": true,
          "internalType": "address",
          "name": "newOwner",
          "type": "address"
        }
      ],
      "name": "OwnershipTransferred",
      "type": "event"
    },
    {
      "anonymous": false,
      "inputs": [
        {
          "indexed": true,
          "internalType": "address",
          "name": "implementation",
          "type": "address"
        }
      ],
      "name": "Upgraded",
      "type": "event"
    },
    {
      "anonymous": false,
      "inputs": [
        {
          "indexed": true,
          "internalType": "address",
          "name": "user",
          "type": "address"
        },
        {
          "indexed": false,
          "internalType": "uint256",
          "name": "amount",
          "type": "uint256"
        }
      ],
      "name": "Withdrawn",
      "type": "event"
    },
    {
      "inputs": [],
      "name": "UPGRADE_INTERFACE_VERSION",
      "outputs": [
        {
          "internalType": "string",
          "name": "",
          "type": "string"
        }
      ],
      "stateMutability": "view",
      "type": "function"
    },
    {
      "inputs": [
        {
          "internalType": "address",
          "name": "",
          "type": "address"
        }
      ],
      "name": "balances",
      "outputs": [
        {
          "internalType": "uint256",
          "name": "",
          "type": "uint256"
        }
      ],
      "stateMutability": "view",
      "type": "function"
    },
    {
      "inputs": [],
      "name": "deposit",
      "outputs": [],
      "stateMutability": "payable",
      "type": "function"
    },
    {
      "inputs": [],
      "name": "getBalance",
      "outputs": [
        {
          "internalType": "uint256",
          "name": "",
          "type": "uint256"
        }
      ],
      "stateMutability": "view",
      "type": "function"
    },
    {
      "inputs": [
        {
          "internalType": "address",
          "name": "initialOwner",
          "type": "address"
        }
      ],
      "name": "initialize",
      "outputs": [],
      "stateMutability": "nonpayable",
      "type": "function"
    },
    {
      "inputs": [],
      "name": "owner",
      "outputs": [
        {
          "internalType": "address",
          "name": "",
          "type": "address"
        }
      ],
      "stateMutability": "view",
      "type": "function"
    },
    {
      "inputs": [],
      "name": "proxiableUUID",
      "outputs": [
        {
          "internalType": "bytes32",
          "name": "",
          "type": "bytes32"
        }
      ],
      "stateMutability": "view",
      "type": "function"
    },
    {
      "inputs": [],
      "name": "renounceOwnership",
      "outputs": [],
      "stateMutability": "nonpayable",
      "type": "function"
    },
    {
      "inputs": [
        {
          "internalType": "address",
          "name": "newOwner",
          "type": "address"
        }
      ],
      "name": "setOwner",
      "outputs": [],
      "stateMutability": "nonpayable",
      "type": "function"
    },
    {
      "inputs": [
        {
          "internalType": "address",
          "name": "newOwner",
          "type": "address"
        }
      ],
      "name": "transferOwnership",
      "outputs": [],
      "stateMutability": "nonpayable",
      "type": "function"
    },
    {
      "inputs": [
        {
          "internalType": "address",
          "name": "newImplementation",
          "type": "address"
        },
        {
          "internalType": "bytes",
          "name": "data",
          "type": "bytes"
        }
      ],
      "name": "upgradeToAndCall",
      "outputs": [],
      "stateMutability": "payable",
      "type": "function"
    },
    {
      "inputs": [
        {
          "internalType": "uint256",
          "name": "amount",
          "type": "uint256"
        }
      ],
      "name": "withdraw",
      "outputs": [],
      "stateMutability": "nonpayable",
      "type": "function"
    }
  ],
  "bytecode": "0x60a06040523060805234801561001457600080fd5b5061001d610022565b6100d4565b7ff0c57e16840df040f15088dc2f81fe391c3923bec73e23a9662efc9c229c6a00805468010000000000000000900460ff16156100725760405163f92ee8a960e01b815260040160405180910390fd5b80546001600160401b03908116146100d15780546001600160401b0319166001600160401b0390811782556040519081527fc7f505b2f371ae2175ee4913f4499e1f2633a7b5936321eed1cdaeb6115181d29060200160405180910390a15b50565b608051610cda6100fd60003960008181610697015281816106c001526108060152610cda6000f3fe6080604052600436106100a75760003560e01c8063715018a611610064578063715018a6146101655780638da5cb5b1461017a578063ad3cb1cc146101a7578063c4d66de8146101e5578063d0e30db014610205578063f2fde38b1461020d57600080fd5b806312065fe0146100ac57806313af4035146100ce57806327e235e3146100f05780632e1a7d4d1461011d5780634f1ef2861461013d57806352d1902d14610150575b600080fd5b3480156100b857600080fd5b50475b6040519081526020015b60405180910390f35b3480156100da57600080fd5b506100ee6100e9366004610acd565b61022d565b005b3480156100fc57600080fd5b506100bb61010b366004610acd565b60006020819052908152604090205481565b34801561012957600080fd5b506100ee610138366004610aef565b610286565b6100ee61014b366004610b1e565b6103c8565b34801561015c57600080fd5b506100bb6103e7565b34801561017157600080fd5b506100ee610404565b34801561018657600080fd5b5061018f610418565b6040516001600160a01b0390911681526020016100c5565b3480156101b357600080fd5b506101d8604051806040016040528060058152602001640352e302e360dc1b81525081565b6040516100c59190610be0565b3480156101f157600080fd5b506100ee610200366004610acd565b610446565b6100ee610542565b34801561021957600080fd5b506100ee610228366004610acd565b6105dd565b6000610237610418565b90506102428261061b565b816001600160a01b0316816001600160a01b03167fb532073b38c83145e3e5135377a08bf9aab55bc0fd7c1179cd4fb995d2a5159c60405160405180910390a35050565b336000908152602081905260409020548111156102e15760405162461bcd60e51b8152602060048201526014602482015273496e73756666696369656e742062616c616e636560601b60448201526064015b60405180910390fd5b604051600090339083908381818185875af1925050503d8060008114610323576040519150601f19603f3d011682016040523d82523d6000602084013e610328565b606091505b505090508061036b5760405162461bcd60e51b815260206004820152600f60248201526e151c985b9cd9995c8819985a5b1959608a1b60448201526064016102d8565b336000908152602081905260408120805484929061038a908490610c45565b909155505060405182815233907f7084f5476618d8e60b11ef0d7d3f06914655adb8793e28ff7f018d4c76d505d59060200160405180910390a25050565b6103d061068c565b6103d982610731565b6103e38282610739565b5050565b60006103f16107fb565b50600080516020610c8583398151915290565b61040c610844565b610416600061061b565b565b7f9016d09d72d40fdae2fd8ceac6b6234c7706214fd39c1cd1e609a0528c199300546001600160a01b031690565b6000610450610876565b805490915060ff600160401b820416159067ffffffffffffffff166000811580156104785750825b905060008267ffffffffffffffff1660011480156104955750303b155b9050811580156104a3575080155b156104c15760405163f92ee8a960e01b815260040160405180910390fd5b845467ffffffffffffffff1916600117855583156104eb57845460ff60401b1916600160401b1785555b6104f4866108a1565b831561053a57845460ff60401b19168555604051600181527fc7f505b2f371ae2175ee4913f4499e1f2633a7b5936321eed1cdaeb6115181d29060200160405180910390a15b505050505050565b600034116105825760405162461bcd60e51b815260206004820152600d60248201526c09aeae6e840e6cadcc8408aa89609b1b60448201526064016102d8565b33600090815260208190526040812080543492906105a1908490610c58565b909155505060405134815233907f2da466a7b24304f47e87fa2e1e5a81b9831ce54fec19055ce277ca2f39ba42c49060200160405180910390a2565b6105e5610844565b6001600160a01b03811661060f57604051631e4fbdf760e01b8152600060048201526024016102d8565b6106188161061b565b50565b7f9016d09d72d40fdae2fd8ceac6b6234c7706214fd39c1cd1e609a0528c19930080546001600160a01b031981166001600160a01b03848116918217845560405192169182907f8be0079c531659141344cd1fd0a4f28419497f9722a3daafe3b4186f6b6457e090600090a3505050565b306001600160a01b037f000000000000000000000000000000000000000000000000000000000000000016148061071357507f00000000000000000000000000000000000000000000000000000000000000006001600160a01b0316610707600080516020610c85833981519152546001600160a01b031690565b6001600160a01b031614155b156104165760405163703e46dd60e11b815260040160405180910390fd5b610618610844565b816001600160a01b03166352d1902d6040518163ffffffff1660e01b8152600401602060405180830381865afa925050508015610793575060408051601f3d908101601f1916820190925261079091810190610c6b565b60015b6107bb57604051634c9c8ce360e01b81526001600160a01b03831660048201526024016102d8565b600080516020610c8583398151915281146107ec57604051632a87526960e21b8152600481018290526024016102d8565b6107f683836108b2565b505050565b306001600160a01b037f000000000000000000000000000000000000000000000000000000000000000016146104165760405163703e46dd60e11b815260040160405180910390fd5b3361084d610418565b6001600160a01b0316146104165760405163118cdaa760e01b81523360048201526024016102d8565b6000807ff0c57e16840df040f15088dc2f81fe391c3923bec73e23a9662efc9c229c6a005b92915050565b6108a9610908565b6106188161092d565b6108bb82610935565b6040516001600160a01b038316907fbc7cd75a20ee27fd9adebab32041f755214dbc6bffa90cc0225b39da2e5c2d3b90600090a2805115610900576107f6828261099a565b6103e3610a3d565b610910610a5c565b61041657604051631afcd79f60e31b815260040160405180910390fd5b6105e5610908565b806001600160a01b03163b60000361096b57604051634c9c8ce360e01b81526001600160a01b03821660048201526024016102d8565b600080516020610c8583398151915280546001600160a01b0319166001600160a01b0392909216919091179055565b606060006109a88484610a76565b90508080156109cb575060003d11806109cb57506000846001600160a01b03163b115b156109e0576109d8610a8b565b91505061089b565b8015610a0a57604051639996b31560e01b81526001600160a01b03851660048201526024016102d8565b3d15610a1d57610a18610aa5565b610a36565b60405163d6bda27560e01b815260040160405180910390fd5b5092915050565b34156104165760405163b398979f60e01b815260040160405180910390fd5b6000610a66610876565b54600160401b900460ff16919050565b6000806000835160208501865af49392505050565b6040513d81523d6000602083013e3d602001810160405290565b6040513d6000823e3d81fd5b80356001600160a01b0381168114610ac857600080fd5b919050565b600060208284031215610adf57600080fd5b610ae882610ab1565b9392505050565b600060208284031215610b0157600080fd5b5035919050565b634e487b7160e01b600052604160045260246000fd5b60008060408385031215610b3157600080fd5b610b3a83610ab1565b9150602083013567ffffffffffffffff80821115610b5757600080fd5b818501915085601f830112610b6b57600080fd5b813581811115610b7d57610b7d610b08565b604051601f8201601f19908116603f01168101908382118183101715610ba557610ba5610b08565b81604052828152886020848701011115610bbe57600080fd5b8260208601602083013760006020848301015280955050505050509250929050565b60006020808352835180602085015260005b81811015610c0e57858101830151858201604001528201610bf2565b506000604082860101526040601f19601f8301168501019250505092915050565b634e487b7160e01b600052601160045260246000fd5b8181038181111561089b5761089b610c2f565b8082018082111561089b5761089b610c2f565b600060208284031215610c7d57600080fd5b505191905056fe360894a13ba1a3210667c828492db98dca3e2076cc3735a920a3ca505d382bbca2646970667358221220179a0231dc9cdbffac82104f5c9b9b81bb3956e64abb082a78fd4cdcd96d088a64736f6c63430008160033",
  "linkReferences": {},
  "deployedLinkReferences": {}
}