{"contracts/VulnerableVault.sol":{"VulnerableVault":{"abi":[{"inputs":[],"stateMutability":"nonpayable","type":"constructor"},{"inputs":[{"internalType":"address","name":"target","type":"address"}],"name":"AddressEmptyCode","type":"error"},{"inputs":[{"internalType":"address","name":"implementation","type":"address"}],"name":"ERC1967InvalidImplementation","type":"error"},{"inputs":[],"name":"ERC1967NonPayable","type":"error"},{"inputs":[],"name":"FailedCall","type":"error"},{"inputs":[],"name":"InvalidInitialization","type":"error"},{"inputs":[],"name":"NotInitializing","type":"error"},{"inputs":[{"internalType":"address","name":"owner","type":"address"}],"name":"OwnableInvalidOwner","type":"error"},{"inputs":[{"internalType":"address","name":"account","type":"address"}],"name":"OwnableUnauthorizedAccount","type":"error"},{"inputs":[],"name":"UUPSUnauthorizedCallContext","type":"error"},{"inputs":[{"internalType":"bytes32","name":"slot","type":"bytes32"}],"name":"UUPSUnsupportedProxiableUUID","type":"error"},{"anonymous":false,"inputs":[{"indexed":true,"internalType":"address","name":"user","type":"address"},{"indexed":false,"internalType":"uint256","name":"amount","type":"uint256"}],"name":"Deposited","type":"event"},{"anonymous":false,"inputs":[{"indexed":false,"internalType":"uint64","name":"version","type":"uint64"}],"name":"Initialized","type":"event"},{"anonymous":false,"inputs":[{"indexed":true,"internalType":"address","name":"oldOwner","type":"address"},{"indexed":true,"internalType":"address","name":"newOwner","type":"address"}],"name":"OwnerChanged","type":"event"},{"anonymous":false,"inputs":[{"indexed":true,"internalType":"address","name":"previousOwner","type":"address"},{"indexed":true,"internalType":"address","name":"newOwner","type":"address"}],"name":"OwnershipTransferred","type":"event"},{"anonymous":false,"inputs":[{"indexed":true,"internalType":"address","name":"implementation","type":"address"}],"name":"Upgraded","type":"event"},{"anonymous":false,"inputs":[{"indexed":true,"internalType":"address","name":"user","type":"address"},{"indexed":false,"internalType":"uint256","name":"amount","type":"uint256"}],"name":"Withdrawn","type":"event"},{"inputs":[],"name":"UPGRADE_INTERFACE_VERSION","outputs":[{"internalType":"string","name":"","type":"string"}],"stateMutability":"view","type":"function"},{"inputs":[{"internalType":"address","name":"","type":"address"}],"name":"balances","outputs":[{"internalType":"uint256","name":"","type":"uint256"}],"stateMutability":"view","type":"function"},{"inputs":[],"name":"deposit","outputs":[],"stateMutability":"payable","type":"function"},{"inputs":[],"name":"getBalance","outputs":[{"internalType":"uint256","name":"","type":"uint256"}],"stateMutability":"view","type":"function"},{"inputs":[{"internalType":"address","name":"initialOwner","type":"address"}],"name":"initialize","outputs":[],"stateMutability":"nonpayable","type":"function"},{"inputs":[],"name":"owner","outputs":[{"internalType":"address","name":"","type":"address"}],"stateMutability":"view","type":"function"},{"inputs":[],"name":"proxiableUUID","outputs":[{"internalType":"bytes32","name":"","type":"bytes32"}],"stateMutability":"view","type":"function"},{"inputs":[],"name":"renounceOwnership","outputs":[],"stateMutability":"nonpayable","type":"function"},{"inputs":[{"internalType":"address","name":"newOwner","type":"address"}],"name":"setOwner","outputs":[],"stateMutability":"nonpayable","type":"function"},{"inputs":[{"internalType":"address","name":"newOwner","type":"address"}],"name":"transferOwnership","outputs":[],"stateMutability":"nonpayable","type":"function"},{"inputs":[{"internalType":"address","name":"newImplementation","type":"address"},{"internalType":"bytes","name":"data","type":"bytes"}],"name":"upgradeToAndCall","outputs":[],"stateMutability":"payable","type":"function"},{"inputs":[{"internalType":"uint256","name":"amount","type":"uint256"}],"name":"withdraw","outputs":[],"stateMutability":"nonpayable","type":"function"}],"evm":{"bytecode":{"linkReferences":{},"object":"60a06040523060805234801561001457600080fd5b5061001d610022565b6100d4565b7ff0c57e16840df040f15088dc2f81fe391c3923bec73e23a9662efc9c229c6a00805468010000000000000000900460ff16156100725760405163f92ee8a960e01b815260040160405180910390fd5b80546001600160401b03908116146100d15780546001600160401b0319166001600160401b0390811782556040519081527fc7f505b2f371ae2175ee4913f4499e1f2633a7b5936321eed1cdaeb6115181d29060200160405180910390a15b50565b608051610cda6100fd60003960008181610697015281816106c001526108060152610cda6000f3fe6080604052600436106100a75760003560e01c8063715018a611610064578063715018a6146101655780638da5cb5b1461017a578063ad3cb1cc146101a7578063c4d66de8146101e5578063d0e30db014610205578063f2fde38b1461020d57600080fd5b806312065fe0146100ac57806313af4035146100ce57806327e235e3146100f05780632e1a7d4d1461011d5780634f1ef2861461013d57806352d1902d14610150575b600080fd5b3480156100b857600080fd5b50475b6040519081526020015b60405180910390f35b3480156100da57600080fd5b506100ee6100e9366004610acd565b61022d565b005b3480156100fc57600080fd5b506100bb61010b366004610acd565b60006020819052908152604090205481565b34801561012957600080fd5b506100ee610138366004610aef565b610286565b6100ee61014b366004610b1e565b6103c8565b34801561015c57600080fd5b506100bb6103e7565b34801561017157600080fd5b506100ee610404565b34801561018657600080fd5b5061018f610418565b6040516001600160a01b0390911681526020016100c5565b3480156101b357600080fd5b506101d8604051806040016040528060058152602001640352e302e360dc1b81525081565b6040516100c59190610be0565b3480156101f157600080fd5b506100ee610200366004610acd565b610446565b6100ee610542565b34801561021957600080fd5b506100ee610228366004610acd565b6105dd565b6000610237610418565b90506102428261061b565b816001600160a01b0316816001600160a01b03167fb532073b38c83145e3e5135377a08bf9aab55bc0fd7c1179cd4fb995d2a5159c60405160405180910390a35050565b336000908152602081905260409020548111156102e15760405162461bcd60e51b8152602060048201526014602482015273496e73756666696369656e742062616c616e636560601b60448201526064015b60405180910390fd5b604051600090339083908381818185875af1925050503d8060008114610323576040519150601f19603f3d011682016040523d82523d6000602084013e610328565b606091505b505090508061036b5760405162461bcd60e51b815260206004820152600f60248201526e151c985b9cd9995c8819985a5b1959608a1b60448201526064016102d8565b336000908152602081905260408120805484929061038a908490610c45565b909155505060405182815233907f7084f5476618d8e60b11ef0d7d3f06914655adb8793e28ff7f018d4c76d505d59060200160405180910390a25050565b6103d061068c565b6103d982610731565b6103e38282610739565b5050565b60006103f16107fb565b50600080516020610c8583398151915290565b61040c610844565b610416600061061b565b565b7f9016d09d72d40fdae2fd8ceac6b6234c7706214fd39c1cd1e609a0528c199300546001600160a01b031690565b6000610450610876565b805490915060ff600160401b820416159067ffffffffffffffff166000811580156104785750825b905060008267ffffffffffffffff1660011480156104955750303b155b9050811580156104a3575080155b156104c15760405163f92ee8a960e01b815260040160405180910390fd5b845467ffffffffffffffff1916600117855583156104eb57845460ff60401b1916600160401b1785555b6104f4866108a1565b831561053a57845460ff60401b19168555604051600181527fc7f505b2f371ae2175ee4913f4499e1f2633a7b5936321eed1cdaeb6115181d29060200160405180910390a15b505050505050565b600034116105825760405162461bcd60e51b815260206004820152600d60248201526c09aeae6e840e6cadcc8408aa89609b1b60448201526064016102d8565b33600090815260208190526040812080543492906105a1908490610c58565b909155505060405134815233907f2da466a7b24304f47e87fa2e1e5a81b9831ce54fec19055ce277ca2f39ba42c49060200160405180910390a2565b6105e5610844565b6001600160a01b03811661060f57604051631e4fbdf760e01b8152600060048201526024016102d8565b6106188161061b565b50565b7f9016d09d72d40fdae2fd8ceac6b6234c7706214fd39c1cd1e609a0528c19930080546001600160a01b031981166001600160a01b03848116918217845560405192169182907f8be0079c531659141344cd1fd0a4f28419497f9722a3daafe3b4186f6b6457e090600090a3505050565b306001600160a01b037f000000000000000000000000000000000000000000000000000000000000000016148061071357507f00000000000000000000000000000000000000000000000000000000000000006001600160a01b0316610707600080516020610c85833981519152546001600160a01b031690565b6001600160a01b031614155b156104165760405163703e46dd60e11b815260040160405180910390fd5b610618610844565b816001600160a01b03166352d1902d6040518163ffffffff1660e01b8152600401602060405180830381865afa925050508015610793575060408051601f3d908101601f1916820190925261079091810190610c6b565b60015b6107bb57604051634c9c8ce360e01b81526001600160a01b03831660048201526024016102d8565b600080516020610c8583398151915281146107ec57604051632a87526960e21b8152600481018290526024016102d8565b6107f683836108b2565b505050565b306001600160a01b037f000000000000000000000000000000000000000000000000000000000000000016146104165760405163703e46dd60e11b815260040160405180910390fd5b3361084d610418565b6001600160a01b0316146104165760405163118cdaa760e01b81523360048201526024016102d8565b6000807ff0c57e16840df040f15088dc2f81fe391c3923bec73e23a9662efc9c229c6a005b92915050565b6108a9610908565b6106188161092d565b6108bb82610935565b6040516001600160a01b038316907fbc7cd75a20ee27fd9adebab32041f755214dbc6bffa90cc0225b39da2e5c2d3b90600090a2805115610900576107f6828261099a565b6103e3610a3d565b610910610a5c565b61041657604051631afcd79f60e31b815260040160405180910390fd5b6105e5610908565b806001600160a01b03163b60000361096b57604051634c9c8ce360e01b81526001600160a01b03821660048201526024016102d8565b600080516020610c8583398151915280546001600160a01b0319166001600160a01b0392909216919091179055565b606060006109a88484610a76565b90508080156109cb575060003d11806109cb57506000846001600160a01b03163b115b156109e0576109d8610a8b565b91505061089b565b8015610a0a57604051639996b31560e01b81526001600160a01b03851660048201526024016102d8565b3d15610a1d57610a18610aa5565b610a36565b60405163d6bda27560e01b815260040160405180910390fd5b5092915050565b34156104165760405163b398979f60e01b815260040160405180910390fd5b6000610a66610876565b54600160401b900460ff16919050565b6000806000835160208501865af49392505050565b6040513d81523d6000602083013e3d602001810160405290565b6040513d6000823e3d81fd5b80356001600160a01b0381168114610ac857600080fd5b919050565b600060208284031215610adf57600080fd5b610ae882610ab1565b9392505050565b600060208284031215610b0157600080fd5b5035919050565b634e487b7160e01b600052604160045260246000fd5b60008060408385031215610b3157600080fd5b610b3a83610ab1565b9150602083013567ffffffffffffffff80821115610b5757600080fd5b818501915085601f830112610b6b57600080fd5b813581811115610b7d57610b7d610b08565b604051601f8201601f19908116603f01168101908382118183101715610ba557610ba5610b08565b81604052828152886020848701011115610bbe57600080fd5b8260208601602083013760006020848301015280955050505050509250929050565b60006020808352835180602085015260005b81811015610c0e57858101830151858201604001528201610bf2565b506000604082860101526040601f19601f8301168501019250505092915050565b634e487b7160e01b600052601160045260246000fd5b8181038181111561089b5761089b610c2f565b8082018082111561089b5761089b610c2f565b600060208284031215610c7d57600080fd5b505191905056fe360894a13ba1a3210667c828492db98dca3e2076cc3735a920a3ca505d382bbca2646970667358221220179a0231dc9cdbffac82104f5c9b9b81bb3956e64abb082a78fd4cdcd96d088a64736f6c63430008160033","opcodes":"PUSH1 0xA0 PUSH1 0x40 MSTORE ADDRESS PUSH1 0x80 MSTORE CALLVALUE DUP1 ISZERO PUSH2 0x14 JUMPI PUSH1 0x0 DUP1 REVERT JUMPDEST POP PUSH2 0x1D PUSH2 0x22 JUMP JUMPDEST PUSH2 0xD4 JUMP JUMPDEST PUSH32 0xF0C57E16840DF040F15088DC2F81FE391C3923BEC73E23A9662EFC9C229C6A00 DUP1 SLOAD PUSH9 0x10000000000000000 SWAP1 DIV PUSH1 0xFF AND ISZERO PUSH2 0x72 JUMPI PUSH1 0x40 MLOAD PUSH4 0xF92EE8A9 PUSH1 0xE0 SHL DUP2 MSTORE PUSH1 0x4 ADD PUSH1 0x40 MLOAD DUP1 SWAP2 SUB SWAP1 REVERT JUMPDEST DUP1 SLOAD PUSH1 0x1 PUSH1 0x1 PUSH1 0x40 SHL SUB SWAP1 DUP2 AND EQ PUSH2 0xD1 JUMPI DUP1 SLOAD PUSH1 0x1 PUSH1 0x1 PUSH1 0x40 SHL SUB NOT AND PUSH1 0x1 PUSH1 0x1 PUSH1 0x40 SHL SUB SWAP1 DUP2 OR DUP3 SSTORE PUSH1 0x40 MLOAD SWAP1 DUP2 MSTORE PUSH32 0xC7F505B2F371AE2175EE4913F4499E1F2633A7B5936321EED1CDAEB6115181D2 SWAP1 PUSH1 0x20 ADD PUSH1 0x40 MLOAD DUP1 SWAP2 SUB SWAP1 LOG1 JUMPDEST POP JUMP JUMPDEST PUSH1 0x80 MLOAD PUSH2 0xCDA PUSH2 0xFD PUSH1 0x0 CODECOPY PUSH1 0x0 DUP2 DUP2 PUSH2 0x697 ADD MSTORE DUP2 DUP2 PUSH2 0x6C0 ADD MSTORE PUSH2 0x806 ADD MSTORE PUSH2 0xCDA PUSH1 0x0 RETURN INVALID PUSH1 0x80 PUSH1 0x40 MSTORE PUSH1 0x4 CALLDATASIZE LT PUSH2 0xA7 JUMPI PUSH1 0x0 CALLDATALOAD PUSH1 0xE0 SHR DUP1 PUSH4 0x715018A6 GT PUSH2 0x64 JUMPI DUP1 PUSH4 0x715018A6 EQ PUSH2 0x165 JUMPI DUP1 PUSH4 0x8DA5CB5B EQ PUSH2 0x17A JUMPI DUP1 PUSH4 0xAD3CB1CC EQ PUSH2 0x1A7 JUMPI DUP1 PUSH4 0xC4D66DE8 EQ PUSH2 0x1E5 JUMPI DUP1 PUSH4 0xD0E30DB0 EQ PUSH2 0x205 JUMPI DUP1 PUSH4 0xF2FDE38B EQ PUSH2 0x20D JUMPI PUSH1 0x0 DUP1 REVERT JUMPDEST DUP1 PUSH4 0x12065FE0 EQ PUSH2 0xAC JUMPI DUP1 PUSH4 0x13AF4035 EQ PUSH2 0xCE JUMPI DUP1 PUSH4 0x27E235E3 EQ PUSH2 0xF0 JUMPI DUP1 PUSH4 0x2E1A7D4D EQ PUSH2 0x11D JUMPI DUP1 PUSH4 0x4F1EF286 EQ PUSH2 0x13D JUMPI DUP1 PUSH4 0x52D1902D EQ PUSH2 0x150 JUMPI JUMPDEST PUSH1 0x0 DUP1 REVERT JUMPDEST CALLVALUE DUP1 ISZERO PUSH2 0xB8 JUMPI PUSH1 0x0 DUP1 REVERT JUMPDEST POP SELFBALANCE JUMPDEST PUSH1 0x40 MLOAD SWAP1 DUP2 MSTORE PUSH1 0x20 ADD JUMPDEST PUSH1 0x40 MLOAD DUP1 SWAP2 SUB SWAP1 RETURN JUMPDEST CALLVALUE DUP1 ISZERO PUSH2 0xDA JUMPI PUSH1 0x0 DUP1 REVERT JUMPDEST POP PUSH2 0xEE PUSH2 0xE9 CALLDATASIZE PUSH1 0x4 PUSH2 0xACD JUMP JUMPDEST PUSH2 0x22D JUMP JUMPDEST STOP JUMPDEST CALLVALUE DUP1 ISZERO PUSH2 0xFC JUMPI PUSH1 0x0 DUP1 REVERT JUMPDEST POP PUSH2 0xBB PUSH2 0x10B CALLDATASIZE PUSH1 0x4 PUSH2 0xACD JUMP JUMPDEST PUSH1 0x0 PUSH1 0x20 DUP2 SWAP1 MSTORE SWAP1 DUP2 MSTORE PUSH1 0x40 SWAP1 KECCAK256 SLOAD DUP2 JUMP JUMPDEST CALLVALUE DUP1 ISZERO PUSH2 0x129 JUMPI PUSH1 0x0 DUP1 REVERT JUMPDEST POP PUSH2 0xEE PUSH2 0x138 CALLDATASIZE PUSH1 0x4 PUSH2 0xAEF JUMP JUMPDEST PUSH2 0x286 JUMP JUMPDEST PUSH2 0xEE PUSH2 0x14B CALLDATASIZE PUSH1 0x4 PUSH2 0xB1E JUMP JUMPDEST PUSH2 0x3C8 JUMP JUMPDEST CALLVALUE DUP1 ISZERO PUSH2 0x15C JUMPI PUSH1 0x0 DUP1 REVERT JUMPDEST POP PUSH2 0xBB PUSH2 0x3E7 JUMP JUMPDEST CALLVALUE DUP1 ISZERO PUSH2 0x171 JUMPI PUSH1 0x0 DUP1 REVERT JUMPDEST POP PUSH2 0xEE PUSH2 0x404 JUMP JUMPDEST CALLVALUE DUP1 ISZERO PUSH2 0x186 JUMPI PUSH1 0x0 DUP1 REVERT JUMPDEST POP PUSH2 0x18F PUSH2 0x418 JUMP JUMPDEST PUSH1 0x40 MLOAD PUSH1 0x1 PUSH1 0x1 PUSH1 0xA0 SHL SUB SWAP1 SWAP2 AND DUP2 MSTORE PUSH1 0x20 ADD PUSH2 0xC5 JUMP JUMPDEST CALLVALUE DUP1 ISZERO PUSH2 0x1B3 JUMPI PUSH1 0x0 DUP1 REVERT JUMPDEST POP PUSH2 0x1D8 PUSH1 0x40 MLOAD DUP1 PUSH1 0x40 ADD PUSH1 0x40 MSTORE DUP1 PUSH1 0x5 DUP2 MSTORE PUSH1 0x20 ADD PUSH5 0x352E302E3 PUSH1 0xDC SHL DUP2 MSTORE POP DUP2 JUMP JUMPDEST PUSH1 0x40 MLOAD PUSH2 0xC5 SWAP2 SWAP1 PUSH2 0xBE0 JUMP JUMPDEST CALLVALUE DUP1 ISZERO PUSH2 0x1F1 JUMPI PUSH1 0x0 DUP1 REVERT JUMPDEST POP PUSH2 0xEE PUSH2 0x200 CALLDATASIZE PUSH1 0x4 PUSH2 0xACD JUMP JUMPDEST PUSH2 0x446 JUMP JUMPDEST PUSH2 0xEE PUSH2 0x542 JUMP JUMPDEST CALLVALUE DUP1 ISZERO PUSH2 0x219 JUMPI PUSH1 0x0 DUP1 REVERT JUMPDEST POP PUSH2 0xEE PUSH2 0x228 CALLDATASIZE PUSH1 0x4 PUSH2 0xACD JUMP JUMPDEST PUSH2 0x5DD JUMP JUMPDEST PUSH1 0x0 PUSH2 0x237 PUSH2 0x418 JUMP JUMPDEST SWAP1 POP PUSH2 0x242 DUP3 PUSH2 0x61B JUMP JUMPDEST DUP2 PUSH1 0x1 PUSH1 0x1 PUSH1 0xA0 SHL SUB AND DUP2 PUSH1 0x1 PUSH1 0x1 PUSH1 0xA0 SHL SUB AND PUSH32 0xB532073B38C83145E3E5135377A08BF9AAB55BC0FD7C1179CD4FB995D2A5159C PUSH1 0x40 MLOAD PUSH1 0x40 MLOAD DUP1 SWAP2 SUB SWAP1 LOG3 POP POP JUMP JUMPDEST CALLER PUSH1 0x0 SWAP1 DUP2 MSTORE PUSH1 0x20 DUP2 SWAP1 MSTORE PUSH1 0x40 SWAP1 KECCAK256 SLOAD DUP2 GT ISZERO PUSH2 0x2E1 JUMPI PUSH1 0x40 MLOAD PUSH3 0x461BCD PUSH1 0xE5 SHL DUP2 MSTORE PUSH1 0x20 PUSH1 0x4 DUP3 ADD MSTORE PUSH1 0x14 PUSH1 0x24 DUP3 ADD MSTORE PUSH20 0x496E73756666696369656E742062616C616E6365 PUSH1 0x60 SHL PUSH1 0x44 DUP3 ADD MSTORE PUSH1 0x64 ADD JUMPDEST PUSH1 0x40 MLOAD DUP1 SWAP2 SUB SWAP1 REVERT JUMPDEST PUSH1 0x40 MLOAD PUSH1 0x0 SWAP1 CALLER SWAP1 DUP4 SWAP1 DUP4 DUP2 DUP2 DUP2 DUP6 DUP8 GAS CALL SWAP3 POP POP POP RETURNDATASIZE DUP1 PUSH1 0x0 DUP2 EQ PUSH2 0x323 JUMPI PUSH1 0x40 MLOAD SWAP2 POP PUSH1 0x1F NOT PUSH1 0x3F RETURNDATASIZE ADD AND DUP3 ADD PUSH1 0x40 MSTORE RETURNDATASIZE DUP3 MSTORE RETURNDATASIZE PUSH1 0x0 PUSH1 0x20 DUP5 ADD RETURNDATACOPY PUSH2 0x328 JUMP JUMPDEST PUSH1 0x60 SWAP2 POP JUMPDEST POP POP SWAP1 POP DUP1 PUSH2 0x36B JUMPI PUSH1 0x40 MLOAD PUSH3 0x461BCD PUSH1 0xE5 SHL DUP2 MSTORE PUSH1 0x20 PUSH1 0x4 DUP3 ADD MSTORE PUSH1 0xF PUSH1 0x24 DUP3 ADD MSTORE PUSH15 0x151C985B9CD9995C8819985A5B1959 PUSH1 0x8A SHL PUSH1 0x44 DUP3 ADD MSTORE PUSH1 0x64 ADD PUSH2 0x2D8 JUMP JUMPDEST CALLER PUSH1 0x0 SWAP1 DUP2 MSTORE PUSH1 0x20 DUP2 SWAP1 MSTORE PUSH1 0x40 DUP2 KECCAK256 DUP1 SLOAD DUP5 SWAP3 SWAP1 PUSH2 0x38A SWAP1 DUP5 SWAP1 PUSH2 0xC45 JUMP JUMPDEST SWAP1 SWAP2 SSTORE POP POP PUSH1 0x40 MLOAD DUP3 DUP2 MSTORE CALLER SWAP1 PUSH32 0x7084F5476618D8E60B11EF0D7D3F06914655ADB8793E28FF7F018D4C76D505D5 SWAP1 PUSH1 0x20 ADD PUSH1 0x40 MLOAD DUP1 SWAP2 SUB SWAP1 LOG2 POP POP JUMP JUMPDEST PUSH2 0x3D0 PUSH2 0x68C JUMP JUMPDEST PUSH2 0x3D9 DUP3 PUSH2 0x731 JUMP JUMPDEST PUSH2 0x3E3 DUP3 DUP3 PUSH2 0x739 JUMP JUMPDEST POP POP JUMP JUMPDEST PUSH1 0x0 PUSH2 0x3F1 PUSH2 0x7FB JUMP JUMPDEST POP PUSH1 0x0 DUP1 MLOAD PUSH1 0x20 PUSH2 0xC85 DUP4 CODECOPY DUP2 MLOAD SWAP2 MSTORE SWAP1 JUMP JUMPDEST PUSH2 0x40C PUSH2 0x844 JUMP JUMPDEST PUSH2 0x416 PUSH1 0x0 PUSH2 0x61B JUMP JUMPDEST JUMP JUMPDEST PUSH32 0x9016D09D72D40FDAE2FD8CEAC6B6234C7706214FD39C1CD1E609A0528C199300 SLOAD PUSH1 0x1 PUSH1 0x1 PUSH1 0xA0 SHL SUB AND SWAP1 JUMP JUMPDEST PUSH1 0x0 PUSH2 0x450 PUSH2 0x876 JUMP JUMPDEST DUP1 SLOAD SWAP1 SWAP2 POP PUSH1 0xFF PUSH1 0x1 PUSH1 0x40 SHL DUP3 DIV AND ISZERO SWAP1 PUSH8 0xFFFFFFFFFFFFFFFF AND PUSH1 0x0 DUP2 ISZERO DUP1 ISZERO PUSH2 0x478 JUMPI POP DUP3 JUMPDEST SWAP1 POP PUSH1 0x0 DUP3 PUSH8 0xFFFFFFFFFFFFFFFF AND PUSH1 0x1 EQ DUP1 ISZERO PUSH2 0x495 JUMPI POP ADDRESS EXTCODESIZE ISZERO JUMPDEST SWAP1 POP DUP2 ISZERO DUP1 ISZERO PUSH2 0x4A3 JUMPI POP DUP1 ISZERO JUMPDEST ISZERO PUSH2 0x4C1 JUMPI PUSH1 0x40 MLOAD PUSH4 0xF92EE8A9 PUSH1 0xE0 SHL DUP2 MSTORE PUSH1 0x4 ADD PUSH1 0x40 MLOAD DUP1 SWAP2 SUB SWAP1 REVERT JUMPDEST DUP5 SLOAD PUSH8 0xFFFFFFFFFFFFFFFF NOT AND PUSH1 0x1 OR DUP6 SSTORE DUP4 ISZERO PUSH2 0x4EB JUMPI DUP5 SLOAD PUSH1 0xFF PUSH1 0x40 SHL NOT AND PUSH1 0x1 PUSH1 0x40 SHL OR DUP6 SSTORE JUMPDEST PUSH2 0x4F4 DUP7 PUSH2 0x8A1 JUMP JUMPDEST DUP4 ISZERO PUSH2 0x53A JUMPI DUP5 SLOAD PUSH1 0xFF PUSH1 0x40 SHL NOT AND DUP6 SSTORE PUSH1 0x40 MLOAD PUSH1 0x1 DUP2 MSTORE PUSH32 0xC7F505B2F371AE2175EE4913F4499E1F2633A7B5936321EED1CDAEB6115181D2 SWAP1 PUSH1 0x20 ADD PUSH1 0x40 MLOAD DUP1 SWAP2 SUB SWAP1 LOG1 JUMPDEST POP POP POP POP POP POP JUMP JUMPDEST PUSH1 0x0 CALLVALUE GT PUSH2 0x582 JUMPI PUSH1 0x40 MLOAD PUSH3 0x461BCD PUSH1 0xE5 SHL DUP2 MSTORE PUSH1 0x20 PUSH1 0x4 DUP3 ADD MSTORE PUSH1 0xD PUSH1 0x24 DUP3 ADD MSTORE PUSH13 0x9AEAE6E840E6CADCC8408AA89 PUSH1 0x9B SHL PUSH1 0x44 DUP3 ADD MSTORE PUSH1 0x64 ADD PUSH2 0x2D8 JUMP JUMPDEST CALLER PUSH1 0x0 SWAP1 DUP2 MSTORE PUSH1 0x20 DUP2 SWAP1 MSTORE PUSH1 0x40 DUP2 KECCAK256 DUP1 SLOAD CALLVALUE SWAP3 SWAP1 PUSH2 0x5A1 SWAP1 DUP5 SWAP1 PUSH2 0xC58 JUMP JUMPDEST SWAP1 SWAP2 SSTORE POP POP PUSH1 0x40 MLOAD CALLVALUE DUP2 MSTORE CALLER SWAP1 PUSH32 0x2DA466A7B24304F47E87FA2E1E5A81B9831CE54FEC19055CE277CA2F39BA42C4 SWAP1 PUSH1 0x20 ADD PUSH1 0x40 MLOAD DUP1 SWAP2 SUB SWAP1 LOG2 JUMP JUMPDEST PUSH2 0x5E5 PUSH2 0x844 JUMP JUMPDEST PUSH1 0x1 PUSH1 0x1 PUSH1 0xA0 SHL SUB DUP2 AND PUSH2 0x60F JUMPI PUSH1 0x40 MLOAD PUSH4 0x1E4FBDF7 PUSH1 0xE0 SHL DUP2 MSTORE PUSH1 0x0 PUSH1 0x4 DUP3 ADD MSTORE PUSH1 0x24 ADD PUSH2 0x2D8 JUMP JUMPDEST PUSH2 0x618 DUP2 PUSH2 0x61B JUMP JUMPDEST POP JUMP JUMPDEST PUSH32 0x9016D09D72D40FDAE2FD8CEAC6B6234C7706214FD39C1CD1E609A0528C199300 DUP1 SLOAD PUSH1 0x1 PUSH1 0x1 PUSH1 0xA0 SHL SUB NOT DUP2 AND PUSH1 0x1 PUSH1 0x1 PUSH1 0xA0 SHL SUB DUP5 DUP2 AND SWAP2 DUP3 OR DUP5 SSTORE PUSH1 0x40 MLOAD SWAP3 AND SWAP2 DUP3 SWAP1 PUSH32 0x8BE0079C531659141344CD1FD0A4F28419497F9722A3DAAFE3B4186F6B6457E0 SWAP1 PUSH1 0x0 SWAP1 LOG3 POP POP POP JUMP JUMPDEST ADDRESS PUSH1 0x1 PUSH1 0x1 PUSH1 0xA0 SHL SUB PUSH32 0x0 AND EQ DUP1 PUSH2 0x713 JUMPI POP PUSH32 0x0 PUSH1 0x1 PUSH1 0x1 PUSH1 0xA0 SHL SUB AND PUSH2 0x707 PUSH1 0x0 DUP1 MLOAD PUSH1 0x20 PUSH2 0xC85 DUP4 CODECOPY DUP2 MLOAD SWAP2 MSTORE SLOAD PUSH1 0x1 PUSH1 0x1 PUSH1 0xA0 SHL SUB AND SWAP1 JUMP JUMPDEST PUSH1 0x1 PUSH1 0x1 PUSH1 0xA0 SHL SUB AND EQ ISZERO JUMPDEST ISZERO PUSH2 0x416 JUMPI PUSH1 0x40 MLOAD PUSH4 0x703E46DD PUSH1 0xE1 SHL DUP2 MSTORE PUSH1 0x4 ADD PUSH1 0x40 MLOAD DUP1 SWAP2 SUB SWAP1 REVERT JUMPDEST PUSH2 0x618 PUSH2 0x844 JUMP JUMPDEST DUP2 PUSH1 0x1 PUSH1 0x1 PUSH1 0xA0 SHL SUB AND PUSH4 0x52D1902D PUSH1 0x40 MLOAD DUP2 PUSH4 0xFFFFFFFF AND PUSH1 0xE0 SHL DUP2 MSTORE PUSH1 0x4 ADD PUSH1 0x20 PUSH1 0x40 MLOAD DUP1 DUP4 SUB DUP2 DUP7 GAS STATICCALL SWAP3 POP POP POP DUP1 ISZERO PUSH2 0x793 JUMPI POP PUSH1 0x40 DUP1 MLOAD PUSH1 0x1F RETURNDATASIZE SWAP1 DUP2 ADD PUSH1 0x1F NOT AND DUP3 ADD SWAP1 SWAP3 MSTORE PUSH2 0x790 SWAP2 DUP2 ADD SWAP1 PUSH2 0xC6B JUMP JUMPDEST PUSH1 0x1 JUMPDEST PUSH2 0x7BB JUMPI PUSH1 0x40 MLOAD PUSH4 0x4C9C8CE3 PUSH1 0xE0 SHL DUP2 MSTORE PUSH1 0x1 PUSH1 0x1 PUSH1 0xA0 SHL SUB DUP4 AND PUSH1 0x4 DUP3 ADD MSTORE PUSH1 0x24 ADD PUSH2 0x2D8 JUMP JUMPDEST PUSH1 0x0 DUP1 MLOAD PUSH1 0x20 PUSH2 0xC85 DUP4 CODECOPY DUP2 MLOAD SWAP2 MSTORE DUP2 EQ PUSH2 0x7EC JUMPI PUSH1 0x40 MLOAD PUSH4 0x2A875269 PUSH1 0xE2 SHL DUP2 MSTORE PUSH1 0x4 DUP2 ADD DUP3 SWAP1 MSTORE PUSH1 0x24 ADD PUSH2 0x2D8 JUMP JUMPDEST PUSH2 0x7F6 DUP4 DUP4 PUSH2 0x8B2 JUMP JUMPDEST POP POP POP JUMP JUMPDEST ADDRESS PUSH1 0x1 PUSH1 0x1 PUSH1 0xA0 SHL SUB PUSH32 0x0 AND EQ PUSH2 0x416 JUMPI PUSH1 0x40 MLOAD PUSH4 0x703E46DD PUSH1 0xE1 SHL DUP2 MSTORE PUSH1 0x4 ADD PUSH1 0x40 MLOAD DUP1 SWAP2 SUB SWAP1 REVERT JUMPDEST CALLER PUSH2 0x84D PUSH2 0x418 JUMP JUMPDEST PUSH1 0x1 PUSH1 0x1 PUSH1 0xA0 SHL SUB AND EQ PUSH2 0x416 JUMPI PUSH1 0x40 MLOAD PUSH4 0x118CDAA7 PUSH1 0xE0 SHL DUP2 MSTORE CALLER PUSH1 0x4 DUP3 ADD MSTORE PUSH1 0x24 ADD PUSH2 0x2D8 JUMP JUMPDEST PUSH1 0x0 DUP1 PUSH32 0xF0C57E16840DF040F15088DC2F81FE391C3923BEC73E23A9662EFC9C229C6A00 JUMPDEST SWAP3 SWAP2 POP POP JUMP JUMPDEST PUSH2 0x8A9 PUSH2 0x908 JUMP JUMPDEST PUSH2 0x618 DUP2 PUSH2 0x92D JUMP JUMPDEST PUSH2 0x8BB DUP3 PUSH2 0x935 JUMP JUMPDEST PUSH1 0x40 MLOAD PUSH1 0x1 PUSH1 0x1 PUSH1 0xA0 SHL SUB DUP4 AND SWAP1 PUSH32 0xBC7CD75A20EE27FD9ADEBAB32041F755214DBC6BFFA90CC0225B39DA2E5C2D3B SWAP1 PUSH1 0x0 SWAP1 LOG2 DUP1 MLOAD ISZERO PUSH2 0x900 JUMPI PUSH2 0x7F6 DUP3 DUP3 PUSH2 0x99A JUMP JUMPDEST PUSH2 0x3E3 PUSH2 0xA3D JUMP JUMPDEST PUSH2 0x910 PUSH2 0xA5C JUMP JUMPDEST PUSH2 0x416 JUMPI PUSH1 0x40 MLOAD PUSH4 0x1AFCD79F PUSH1 0xE3 SHL DUP2 MSTORE PUSH1 0x4 ADD PUSH1 0x40 MLOAD DUP1 SWAP2 SUB SWAP1 REVERT JUMPDEST PUSH2 0x5E5 PUSH2 0x908 JUMP JUMPDEST DUP1 PUSH1 0x1 PUSH1 0x1 PUSH1 0xA0 SHL SUB AND EXTCODESIZE PUSH1 0x0 SUB PUSH2 0x96B JUMPI PUSH1 0x40 MLOAD PUSH4 0x4C9C8CE3 PUSH1 0xE0 SHL DUP2 MSTORE PUSH1 0x1 PUSH1 0x1 PUSH1 0xA0 SHL SUB DUP3 AND PUSH1 0x4 DUP3 ADD MSTORE PUSH1 0x24 ADD PUSH2 0x2D8 JUMP JUMPDEST PUSH1 0x0 DUP1 MLOAD PUSH1 0x20 PUSH2 0xC85 DUP4 CODECOPY DUP2 MLOAD SWAP2 MSTORE DUP1 SLOAD PUSH1 0x1 PUSH1 0x1 PUSH1 0xA0 SHL SUB NOT AND PUSH1 0x1 PUSH1 0x1 PUSH1 0xA0 SHL SUB SWAP3 SWAP1 SWAP3 AND SWAP2 SWAP1 SWAP2 OR SWAP1 SSTORE JUMP JUMPDEST PUSH1 0x60 PUSH1 0x0 PUSH2 0x9A8 DUP5 DUP5 PUSH2 0xA76 JUMP JUMPDEST SWAP1 POP DUP1 DUP1 ISZERO PUSH2 0x9CB JUMPI POP PUSH1 0x0 RETURNDATASIZE GT DUP1 PUSH2 0x9CB JUMPI POP PUSH1 0x0 DUP5 PUSH1 0x1 PUSH1 0x1 PUSH1 0xA0 SHL SUB AND EXTCODESIZE GT JUMPDEST ISZERO PUSH2 0x9E0 JUMPI PUSH2 0x9D8 PUSH2 0xA8B JUMP JUMPDEST SWAP2 POP POP PUSH2 0x89B JUMP JUMPDEST DUP1 ISZERO PUSH2 0xA0A JUMPI PUSH1 0x40 MLOAD PUSH4 0x9996B315 PUSH1 0xE0 SHL DUP2 MSTORE PUSH1 0x1 PUSH1 0x1 PUSH1 0xA0 SHL SUB DUP6 AND PUSH1 0x4 DUP3 ADD MSTORE PUSH1 0x24 ADD PUSH2 0x2D8 JUMP JUMPDEST RETURNDATASIZE ISZERO PUSH2 0xA1D JUMPI PUSH2 0xA18 PUSH2 0xAA5 JUMP JUMPDEST PUSH2 0xA36 JUMP JUMPDEST PUSH1 0x40 MLOAD PUSH4 0xD6BDA275 PUSH1 0xE0 SHL DUP2 MSTORE PUSH1 0x4 ADD PUSH1 0x40 MLOAD DUP1 SWAP2 SUB SWAP1 REVERT JUMPDEST POP SWAP3 SWAP2 POP POP JUMP JUMPDEST CALLVALUE ISZERO PUSH2 0x416 JUMPI PUSH1 0x40 MLOAD PUSH4 0xB398979F PUSH1 0xE0 SHL DUP2 MSTORE PUSH1 0x4 ADD PUSH1 0x40 MLOAD DUP1 SWAP2 SUB SWAP1 REVERT JUMPDEST PUSH1 0x0 PUSH2 0xA66 PUSH2 0x876 JUMP JUMPDEST SLOAD PUSH1 0x1 PUSH1 0x40 SHL SWAP1 DIV PUSH1 0xFF AND SWAP2 SWAP1 POP JUMP JUMPDEST PUSH1 0x0 DUP1 PUSH1 0x0 DUP4 MLOAD PUSH1 0x20 DUP6 ADD DUP7 GAS DELEGATECALL SWAP4 SWAP3 POP POP POP JUMP JUMPDEST PUSH1 0x40 MLOAD RETURNDATASIZE DUP2 MSTORE RETURNDATASIZE PUSH1 0x0 PUSH1 0x20 DUP4 ADD RETURNDATACOPY RETURNDATASIZE PUSH1 0x20 ADD DUP2 ADD PUSH1 0x40 MSTORE SWAP1 JUMP JUMPDEST PUSH1 0x40 MLOAD RETURNDATASIZE PUSH1 0x0 DUP3 RETURNDATACOPY RETURNDATASIZE DUP2 REVERT JUMPDEST DUP1 CALLDATALOAD PUSH1 0x1 PUSH1 0x1 PUSH1 0xA0 SHL SUB DUP2 AND DUP2 EQ PUSH2 0xAC8 JUMPI PUSH1 0x0 DUP1 REVERT JUMPDEST SWAP2 SWAP1 POP JUMP JUMPDEST PUSH1 0x0 PUSH1 0x20 DUP3 DUP5 SUB SLT ISZERO PUSH2 0xADF JUMPI PUSH1 0x0 DUP1 REVERT JUMPDEST PUSH2 0xAE8 DUP3 PUSH2 0xAB1 JUMP JUMPDEST SWAP4 SWAP3 POP POP POP JUMP JUMPDEST PUSH1 0x0 PUSH1 0x20 DUP3 DUP5 SUB SLT ISZERO PUSH2 0xB01 JUMPI PUSH1 0x0 DUP1 REVERT JUMPDEST POP CALLDATALOAD SWAP2 SWAP1 POP JUMP JUMPDEST PUSH4 0x4E487B71 PUSH1 0xE0 SHL PUSH1 0x0 MSTORE PUSH1 0x41 PUSH1 0x4 MSTORE PUSH1 0x24 PUSH1 0x0 REVERT JUMPDEST PUSH1 0x0 DUP1 PUSH1 0x40 DUP4 DUP6 SUB SLT ISZERO PUSH2 0xB31 JUMPI PUSH1 0x0 DUP1 REVERT JUMPDEST PUSH2 0xB3A DUP4 PUSH2 0xAB1 JUMP JUMPDEST SWAP2 POP PUSH1 0x20 DUP4 ADD CALLDATALOAD PUSH8 0xFFFFFFFFFFFFFFFF DUP1 DUP3 GT ISZERO PUSH2 0xB57 JUMPI PUSH1 0x0 DUP1 REVERT JUMPDEST DUP2 DUP6 ADD SWAP2 POP DUP6 PUSH1 0x1F DUP4 ADD SLT PUSH2 0xB6B JUMPI PUSH1 0x0 DUP1 REVERT JUMPDEST DUP2 CALLDATALOAD DUP2 DUP2 GT ISZERO PUSH2 0xB7D JUMPI PUSH2 0xB7D PUSH2 0xB08 JUMP JUMPDEST PUSH1 0x40 MLOAD PUSH1 0x1F DUP3 ADD PUSH1 0x1F NOT SWAP1 DUP2 AND PUSH1 0x3F ADD AND DUP2 ADD SWAP1 DUP4 DUP3 GT DUP2 DUP4 LT OR ISZERO PUSH2 0xBA5 JUMPI PUSH2 0xBA5 PUSH2 0xB08 JUMP JUMPDEST DUP2 PUSH1 0x40 MSTORE DUP3 DUP2 MSTORE DUP9 PUSH1 0x20 DUP5 DUP8 ADD ADD GT ISZERO PUSH2 0xBBE JUMPI PUSH1 0x0 DUP1 REVERT JUMPDEST DUP3 PUSH1 0x20 DUP7 ADD PUSH1 0x20 DUP4 ADD CALLDATACOPY PUSH1 0x0 PUSH1 0x20 DUP5 DUP4 ADD ADD MSTORE DUP1 SWAP6 POP POP POP POP POP POP SWAP3 POP SWAP3 SWAP1 POP JUMP JUMPDEST PUSH1 0x0 PUSH1 0x20 DUP1 DUP4 MSTORE DUP4 MLOAD DUP1 PUSH1 0x20 DUP6 ADD MSTORE PUSH1 0x0 JUMPDEST DUP2 DUP2 LT ISZERO PUSH2 0xC0E JUMPI DUP6 DUP2 ADD DUP4 ADD MLOAD DUP6 DUP3 ADD PUSH1 0x40 ADD MSTORE DUP3 ADD PUSH2 0xBF2 JUMP JUMPDEST POP PUSH1 0x0 PUSH1 0x40 DUP3 DUP7 ADD ADD MSTORE PUSH1 0x40 PUSH1 0x1F NOT PUSH1 0x1F DUP4 ADD AND DUP6 ADD ADD SWAP3 POP POP POP SWAP3 SWAP2 POP POP JUMP JUMPDEST PUSH4 0x4E487B71 PUSH1 0xE0 SHL PUSH1 0x0 MSTORE PUSH1 0x11 PUSH1 0x4 MSTORE PUSH1 0x24 PUSH1 0x0 REVERT JUMPDEST DUP2 DUP2 SUB DUP2 DUP2 GT ISZERO PUSH2 0x89B JUMPI PUSH2 0x89B PUSH2 0xC2F JUMP JUMPDEST DUP1 DUP3 ADD DUP1 DUP3 GT ISZERO PUSH2 0x89B JUMPI PUSH2 0x89B PUSH2 0xC2F JUMP JUMPDEST PUSH1 0x0 PUSH1 0x20 DUP3 DUP5 SUB SLT ISZERO PUSH2 0xC7D JUMPI PUSH1 0x0 DUP1 REVERT JUMPDEST POP MLOAD SWAP2 SWAP1 POP JUMP INVALID CALLDATASIZE ADDMOD SWAP5 LOG1 EXTCODESIZE LOG1 LOG3 0x21 MOD PUSH8 0xC828492DB98DCA3E KECCAK256 PUSH23 0xCC3735A920A3CA505D382BBCA264697066735822122017 SWAP11 MUL BALANCE 0xDC SWAP13 0xDB SELFDESTRUCT 0xAC DUP3 LT 0x4F 0x5C SWAP12 SWAP12 DUP2 0xBB CODECOPY JUMP 0xE6 0x4A 0xBB ADDMOD 0x2A PUSH25 0xFD4CDCD96D088A64736F6C6343000816003300000000000000 "},"methodIdentifiers":{"UPGRADE_INTERFACE_VERSION()":"ad3cb1cc","balances(address)":"27e235e3","deposit()":"d0e30db0","getBalance()":"12065fe0","initialize(address)":"c4d66de8","owner()":"8da5cb5b","proxiableUUID()":"52d1902d","renounceOwnership()":"715018a6","setOwner(address)":"13af4035","transferOwnership(address)":"f2fde38b","upgradeToAndCall(address,bytes)":"4f1ef286","withdraw(uint256)":"2e1a7d4d"}}}}}